{
  "_format": "hh-sol-artifact-1",
  "contractName": "Voting",
  "sourceName": "contracts/Voting.sol",
  "abi": [
    {
      "inputs": [],
      "stateMutability": "nonpayable",
      "type": "constructor"
    },
    {
      "anonymous": false,
      "inputs": [
        {
          "indexed": true,
          "internalType": "uint256",
          "name": "_candidateId",
          "type": "uint256"
        }
      ],
      "name": "Voted",
      "type": "event"
    },
    {
      "inputs": [
        {
          "internalType": "string",
          "name": "_name",
          "type": "string"
        }
      ],
      "name": "addCandidate",
      "outputs": [],
      "stateMutability": "nonpayable",
      "type": "function"
    },
    {
      "inputs": [
        {
          "internalType": "address",
          "name": "_voter",
          "type": "address"
        }
      ],
      "name": "addVoter",
      "outputs": [],
      "stateMutability": "nonpayable",
      "type": "function"
    },
    {
      "inputs": [],
      "name": "candidatesCount",
      "outputs": [
        {
          "internalType": "uint256",
          "name": "",
          "type": "uint256"
        }
      ],
      "stateMutability": "view",
      "type": "function"
    },
    {
      "inputs": [],
      "name": "electionState",
      "outputs": [
        {
          "internalType": "enum Voting.State",
          "name": "",
          "type": "uint8"
        }
      ],
      "stateMutability": "view",
      "type": "function"
    },
    {
      "inputs": [],
      "name": "endElection",
      "outputs": [],
      "stateMutability": "nonpayable",
      "type": "function"
    },
    {
      "inputs": [
        {
          "internalType": "uint256",
          "name": "_candidateId",
          "type": "uint256"
        }
      ],
      "name": "getCandidateDetails",
      "outputs": [
        {
          "internalType": "string",
          "name": "",
          "type": "string"
        },
        {
          "internalType": "uint256",
          "name": "",
          "type": "uint256"
        }
      ],
      "stateMutability": "view",
      "type": "function"
    },
    {
      "inputs": [
        {
          "internalType": "address",
          "name": "_current",
          "type": "address"
        }
      ],
      "name": "getRole",
      "outputs": [
        {
          "internalType": "uint256",
          "name": "",
          "type": "uint256"
        }
      ],
      "stateMutability": "view",
      "type": "function"
    },
    {
      "inputs": [],
      "name": "owner",
      "outputs": [
        {
          "internalType": "address",
          "name": "",
          "type": "address"
        }
      ],
      "stateMutability": "view",
      "type": "function"
    },
    {
      "inputs": [],
      "name": "startElection",
      "outputs": [],
      "stateMutability": "nonpayable",
      "type": "function"
    },
    {
      "inputs": [
        {
          "internalType": "uint256",
          "name": "_candidateId",
          "type": "uint256"
        }
      ],
      "name": "vote",
      "outputs": [],
      "stateMutability": "nonpayable",
      "type": "function"
    },
    {
      "inputs": [],
      "name": "votersCount",
      "outputs": [
        {
          "internalType": "uint256",
          "name": "",
          "type": "uint256"
        }
      ],
      "stateMutability": "view",
      "type": "function"
    }
  ],
  "bytecode": "0x6080604052600060045560006005553480156200001b57600080fd5b50336000806101000a81548173ffffffffffffffffffffffffffffffffffffffff021916908373ffffffffffffffffffffffffffffffffffffffff16021790555060008060146101000a81548160ff0219169083600281111562000084576200008362000361565b5b0217905550620000cf6040518060400160405280600b81526020017f43616e64696461746520310000000000000000000000000000000000000000008152506200011b60201b60201c565b620001156040518060400160405280600b81526020017f43616e64696461746520320000000000000000000000000000000000000000008152506200011b60201b60201c565b62000571565b3373ffffffffffffffffffffffffffffffffffffffff1660008054906101000a900473ffffffffffffffffffffffffffffffffffffffff1673ffffffffffffffffffffffffffffffffffffffff1614620001ac576040517f08c379a0000000000000000000000000000000000000000000000000000000008152600401620001a390620003f1565b60405180910390fd5b60006002811115620001c357620001c262000361565b5b600060149054906101000a900460ff166002811115620001e857620001e762000361565b5b146200022b576040517f08c379a0000000000000000000000000000000000000000000000000000000008152600401620002229062000463565b60405180910390fd5b60405180606001604052806004548152602001828152602001600081525060016000600454815260200190815260200160002060008201518160000155602082015181600101908051906020019062000286929190620002b1565b506040820151816002015590505060046000815480929190620002a990620004be565b919050555050565b828054620002bf906200053b565b90600052602060002090601f016020900481019282620002e357600085556200032f565b82601f10620002fe57805160ff19168380011785556200032f565b828001600101855582156200032f579182015b828111156200032e57825182559160200191906001019062000311565b5b5090506200033e919062000342565b5090565b5b808211156200035d57600081600090555060010162000343565b5090565b7f4e487b7100000000000000000000000000000000000000000000000000000000600052602160045260246000fd5b600082825260208201905092915050565b7f4f6e6c79206f776e65722063616e206164642063616e64696461746573000000600082015250565b6000620003d9601d8362000390565b9150620003e682620003a1565b602082019050919050565b600060208201905081810360008301526200040c81620003ca565b9050919050565b7f456c656374696f6e2068617320616c7265616479207374617274656400000000600082015250565b60006200044b601c8362000390565b9150620004588262000413565b602082019050919050565b600060208201905081810360008301526200047e816200043c565b9050919050565b7f4e487b7100000000000000000000000000000000000000000000000000000000600052601160045260246000fd5b6000819050919050565b6000620004cb82620004b4565b91507fffffffffffffffffffffffffffffffffffffffffffffffffffffffffffffffff82141562000501576200050062000485565b5b600182019050919050565b7f4e487b7100000000000000000000000000000000000000000000000000000000600052602260045260246000fd5b600060028204905060018216806200055457607f821691505b602082108114156200056b576200056a6200050c565b5b50919050565b61156f80620005816000396000f3fe608060405234801561001057600080fd5b50600436106100a95760003560e01c8063462e91ec11610071578063462e91ec1461016757806359f784681461018357806362d73eb81461018d5780638da5cb5b1461019757806398c07938146101b5578063f4ab9adf146101d3576100a9565b80630121b93f146100ae5780632280043d146100ca57806327f9fd50146100e85780632d35a8a2146101195780634427673314610137575b600080fd5b6100c860048036038101906100c39190610c89565b6101ef565b005b6100d2610483565b6040516100df9190610d2d565b60405180910390f35b61010260048036038101906100fd9190610c89565b610496565b604051610110929190610df0565b60405180910390f35b6101216105ac565b60405161012e9190610e20565b60405180910390f35b610151600480360381019061014c9190610e99565b6105b2565b60405161015e9190610e20565b60405180910390f35b610181600480360381019061017c9190610ffb565b610676565b005b61018b6107fc565b005b6101956108c1565b005b61019f610986565b6040516101ac9190611053565b60405180910390f35b6101bd6109aa565b6040516101ca9190610e20565b60405180910390f35b6101ed60048036038101906101e89190610e99565b6109b0565b005b6001600281111561020357610202610cb6565b5b600060149054906101000a900460ff16600281111561022557610224610cb6565b5b14610265576040517f08c379a000000000000000000000000000000000000000000000000000000000815260040161025c906110ba565b60405180910390fd5b600360003373ffffffffffffffffffffffffffffffffffffffff1673ffffffffffffffffffffffffffffffffffffffff16815260200190815260200160002060009054906101000a900460ff166102f1576040517f08c379a00000000000000000000000000000000000000000000000000000000081526004016102e890611126565b60405180910390fd5b600260003373ffffffffffffffffffffffffffffffffffffffff1673ffffffffffffffffffffffffffffffffffffffff16815260200190815260200160002060009054906101000a900460ff161561037e576040517f08c379a000000000000000000000000000000000000000000000000000000000815260040161037590611192565b60405180910390fd5b60008110158015610390575060045481105b6103cf576040517f08c379a00000000000000000000000000000000000000000000000000000000081526004016103c6906111fe565b60405180910390fd5b6001600082815260200190815260200160002060020160008154809291906103f69061124d565b91905055506001600260003373ffffffffffffffffffffffffffffffffffffffff1673ffffffffffffffffffffffffffffffffffffffff16815260200190815260200160002060006101000a81548160ff021916908315150217905550807f7f511e347bf51eed3be100b3194247d5207f05f3b33de7d31e3e8ee73199a04960405160405180910390a250565b600060149054906101000a900460ff1681565b606060008083101580156104ab575060045483105b6104ea576040517f08c379a00000000000000000000000000000000000000000000000000000000081526004016104e1906111fe565b60405180910390fd5b600160008481526020019081526020016000206001016001600085815260200190815260200160002060020154818054610523906112c5565b80601f016020809104026020016040519081016040528092919081815260200182805461054f906112c5565b801561059c5780601f106105715761010080835404028352916020019161059c565b820191906000526020600020905b81548152906001019060200180831161057f57829003601f168201915b5050505050915091509150915091565b60045481565b60008173ffffffffffffffffffffffffffffffffffffffff1660008054906101000a900473ffffffffffffffffffffffffffffffffffffffff1673ffffffffffffffffffffffffffffffffffffffff1614156106115760019050610671565b600360008373ffffffffffffffffffffffffffffffffffffffff1673ffffffffffffffffffffffffffffffffffffffff16815260200190815260200160002060009054906101000a900460ff161561066c5760029050610671565b600390505b919050565b3373ffffffffffffffffffffffffffffffffffffffff1660008054906101000a900473ffffffffffffffffffffffffffffffffffffffff1673ffffffffffffffffffffffffffffffffffffffff1614610704576040517f08c379a00000000000000000000000000000000000000000000000000000000081526004016106fb90611343565b60405180910390fd5b6000600281111561071857610717610cb6565b5b600060149054906101000a900460ff16600281111561073a57610739610cb6565b5b1461077a576040517f08c379a0000000000000000000000000000000000000000000000000000000008152600401610771906113af565b60405180910390fd5b6040518060600160405280600454815260200182815260200160008152506001600060045481526020019081526020016000206000820151816000015560208201518160010190805190602001906107d3929190610b9c565b5060408201518160020155905050600460008154809291906107f49061124d565b919050555050565b60008054906101000a900473ffffffffffffffffffffffffffffffffffffffff1673ffffffffffffffffffffffffffffffffffffffff163373ffffffffffffffffffffffffffffffffffffffff161461085457600080fd5b6001600281111561086857610867610cb6565b5b600060149054906101000a900460ff16600281111561088a57610889610cb6565b5b1461089457600080fd5b6002600060146101000a81548160ff021916908360028111156108ba576108b9610cb6565b5b0217905550565b60008054906101000a900473ffffffffffffffffffffffffffffffffffffffff1673ffffffffffffffffffffffffffffffffffffffff163373ffffffffffffffffffffffffffffffffffffffff161461091957600080fd5b6000600281111561092d5761092c610cb6565b5b600060149054906101000a900460ff16600281111561094f5761094e610cb6565b5b1461095957600080fd5b6001600060146101000a81548160ff0219169083600281111561097f5761097e610cb6565b5b0217905550565b60008054906101000a900473ffffffffffffffffffffffffffffffffffffffff1681565b60055481565b3373ffffffffffffffffffffffffffffffffffffffff1660008054906101000a900473ffffffffffffffffffffffffffffffffffffffff1673ffffffffffffffffffffffffffffffffffffffff1614610a3e576040517f08c379a0000000000000000000000000000000000000000000000000000000008152600401610a359061141b565b60405180910390fd5b600360008273ffffffffffffffffffffffffffffffffffffffff1673ffffffffffffffffffffffffffffffffffffffff16815260200190815260200160002060009054906101000a900460ff1615610acb576040517f08c379a0000000000000000000000000000000000000000000000000000000008152600401610ac290611487565b60405180910390fd5b60006002811115610adf57610ade610cb6565b5b600060149054906101000a900460ff166002811115610b0157610b00610cb6565b5b14610b41576040517f08c379a0000000000000000000000000000000000000000000000000000000008152600401610b3890611519565b60405180910390fd5b6001600360008373ffffffffffffffffffffffffffffffffffffffff1673ffffffffffffffffffffffffffffffffffffffff16815260200190815260200160002060006101000a81548160ff02191690831515021790555050565b828054610ba8906112c5565b90600052602060002090601f016020900481019282610bca5760008555610c11565b82601f10610be357805160ff1916838001178555610c11565b82800160010185558215610c11579182015b82811115610c10578251825591602001919060010190610bf5565b5b509050610c1e9190610c22565b5090565b5b80821115610c3b576000816000905550600101610c23565b5090565b6000604051905090565b600080fd5b600080fd5b6000819050919050565b610c6681610c53565b8114610c7157600080fd5b50565b600081359050610c8381610c5d565b92915050565b600060208284031215610c9f57610c9e610c49565b5b6000610cad84828501610c74565b91505092915050565b7f4e487b7100000000000000000000000000000000000000000000000000000000600052602160045260246000fd5b60038110610cf657610cf5610cb6565b5b50565b6000819050610d0782610ce5565b919050565b6000610d1782610cf9565b9050919050565b610d2781610d0c565b82525050565b6000602082019050610d426000830184610d1e565b92915050565b600081519050919050565b600082825260208201905092915050565b60005b83811015610d82578082015181840152602081019050610d67565b83811115610d91576000848401525b50505050565b6000601f19601f8301169050919050565b6000610db382610d48565b610dbd8185610d53565b9350610dcd818560208601610d64565b610dd681610d97565b840191505092915050565b610dea81610c53565b82525050565b60006040820190508181036000830152610e0a8185610da8565b9050610e196020830184610de1565b9392505050565b6000602082019050610e356000830184610de1565b92915050565b600073ffffffffffffffffffffffffffffffffffffffff82169050919050565b6000610e6682610e3b565b9050919050565b610e7681610e5b565b8114610e8157600080fd5b50565b600081359050610e9381610e6d565b92915050565b600060208284031215610eaf57610eae610c49565b5b6000610ebd84828501610e84565b91505092915050565b600080fd5b600080fd5b7f4e487b7100000000000000000000000000000000000000000000000000000000600052604160045260246000fd5b610f0882610d97565b810181811067ffffffffffffffff82111715610f2757610f26610ed0565b5b80604052505050565b6000610f3a610c3f565b9050610f468282610eff565b919050565b600067ffffffffffffffff821115610f6657610f65610ed0565b5b610f6f82610d97565b9050602081019050919050565b82818337600083830152505050565b6000610f9e610f9984610f4b565b610f30565b905082815260208101848484011115610fba57610fb9610ecb565b5b610fc5848285610f7c565b509392505050565b600082601f830112610fe257610fe1610ec6565b5b8135610ff2848260208601610f8b565b91505092915050565b60006020828403121561101157611010610c49565b5b600082013567ffffffffffffffff81111561102f5761102e610c4e565b5b61103b84828501610fcd565b91505092915050565b61104d81610e5b565b82525050565b60006020820190506110686000830184611044565b92915050565b7f456c656374696f6e206973206e6f7420696e2070726f67726573730000000000600082015250565b60006110a4601b83610d53565b91506110af8261106e565b602082019050919050565b600060208201905081810360008301526110d381611097565b9050919050565b7f4e6f6e20617574686f726973656420757365722063616e6e6f7420766f746500600082015250565b6000611110601f83610d53565b915061111b826110da565b602082019050919050565b6000602082019050818103600083015261113f81611103565b9050919050565b7f596f75206861766520616c726561647920766f74656400000000000000000000600082015250565b600061117c601683610d53565b915061118782611146565b602082019050919050565b600060208201905081810360008301526111ab8161116f565b9050919050565b7f496e76616c69642063616e646964617465204944000000000000000000000000600082015250565b60006111e8601483610d53565b91506111f3826111b2565b602082019050919050565b60006020820190508181036000830152611217816111db565b9050919050565b7f4e487b7100000000000000000000000000000000000000000000000000000000600052601160045260246000fd5b600061125882610c53565b91507fffffffffffffffffffffffffffffffffffffffffffffffffffffffffffffffff82141561128b5761128a61121e565b5b600182019050919050565b7f4e487b7100000000000000000000000000000000000000000000000000000000600052602260045260246000fd5b600060028204905060018216806112dd57607f821691505b602082108114156112f1576112f0611296565b5b50919050565b7f4f6e6c79206f776e65722063616e206164642063616e64696461746573000000600082015250565b600061132d601d83610d53565b9150611338826112f7565b602082019050919050565b6000602082019050818103600083015261135c81611320565b9050919050565b7f456c656374696f6e2068617320616c7265616479207374617274656400000000600082015250565b6000611399601c83610d53565b91506113a482611363565b602082019050919050565b600060208201905081810360008301526113c88161138c565b9050919050565b7f4f6e6c79206f776e65722063616e2061646420766f7465720000000000000000600082015250565b6000611405601883610d53565b9150611410826113cf565b602082019050919050565b60006020820190508181036000830152611434816113f8565b9050919050565b7f566f74657220616c726561647920616464656400000000000000000000000000600082015250565b6000611471601383610d53565b915061147c8261143b565b602082019050919050565b600060208201905081810360008301526114a081611464565b9050919050565b7f566f7465722063616e277420626520616464656420616674657220656c65637460008201527f696f6e2073746172746564000000000000000000000000000000000000000000602082015250565b6000611503602b83610d53565b915061150e826114a7565b604082019050919050565b60006020820190508181036000830152611532816114f6565b905091905056fea2646970667358221220b4802469c526e88b838e61a7e5987303ed9223be8017fd3ddcd801a10b0712c864736f6c634300080b0033",
  "linkReferences": {},
  "deployedLinkReferences": {}
}